:100000000C942D000C946E030C946E030C946E03F0
:100010000C946E030C946E030C946E030C946E039C
:100020000C946E030C946E030C946E030C941402E7
:100030000C946E030C946E030C946E030C946E037C
:100040000C946E030C946E030C946E030C946E036C
:100050000C946E0300600062800011241FBECFE587
:10006000D8E0DEBFCDBFE4E5F0E040E017C0B591D9
:10007000A59135912591059107FD0CC0959185912C
:10008000EF01F92FE82F05900D92A217B307D9F7CA
:10009000FE0104C01D92A217B307E1F7E935F4078A
:0E00A00031F70E945B020C945F03F894FFCFCF
:1000AE0041E060E080E00E94D900813009F079C023
:1000BE0041E061E080E00E94D900813009F071C01A
:1000CE0041E062E080E00E94D900813009F069C011
:1000DE0041E067E00E94D900813009F062C041E042
:1000EE0066E00E94D900813009F05BC041E065E016
:1000FE000E94D900813009F054C041E064E00E94B2
:10010E00D900813009F04DC08DE292E20197F1F7EE
:10011E0000C0000041E063E081E00E94D900813020
:10012E0009F03FC041E062E00E94D9008130C9F57C
:10013E0041E061E00E94D900813099F541E060E034
:10014E000E94D900813069F588E30E942E03813028
:10015E0041F589EF90E00197F1F700C000008FE0C4
:10016E000E942E038130E9F489EF90E00197F1F7B8
:10017E0000C0000081E00E942E03813091F483EFD5
:10018E0091E00197F1F700C0000086E00E942E0377
:10019E00813039F489EF90E00197F1F700C000004B
:0401AE0081E008954F
:1001B200843008F067C0683008F066C0423008F04A
:1001C20065C08130E9F030F0823081F1833009F48A
:1001D20043C05EC081E090E0062E02C0880F991FE6
:1001E2000A94E2F780952AB32823842F90E002C074
:1001F200880F991F6A95E2F7822B8ABB81E00895E6
:1002020021E030E0062E02C0220F331F0A94E2F7EB
:10021200209587B32823842F90E002C0880F991F6E
:100222006A95E2F7822B87BB81E0089521E030E0F6
:10023200062E02C0220F331F0A94E2F7209584B3E0
:100242002823842F90E002C0880F991F6A95E2F755
:10025200822B84BB81E0089521E030E0062E02C0AB
:10026200220F331F0A94E2F7209581B32823842FAB
:1002720090E002C0880F991F6A95E2F7822B81BB3A
:1002820081E0089582E0089582E0089582E0089571
:0402920081E008956A
:10029600843008F067C0683008F066C0423008F065
:1002A60065C08130E9F030F0823081F1833009F4A5
:1002B60043C05EC081E090E0062E02C0880F991F01
:1002C6000A94E2F780952BB32823842F90E002C08E
:1002D600880F991F6A95E2F7822B8BBB81E0089500
:1002E60021E030E0062E02C0220F331F0A94E2F707
:1002F600209588B32823842F90E002C0880F991F89
:100306006A95E2F7822B88BB81E0089521E030E010
:10031600062E02C0220F331F0A94E2F7209585B3FA
:100326002823842F90E002C0880F991F6A95E2F770
:10033600822B85BB81E0089521E030E0062E02C0C5
:10034600220F331F0A94E2F7209582B32823842FC5
:1003560090E002C0880F991F6A95E2F7822B82BB54
:1003660081E0089582E0089582E0089582E008958C
:0403760081E0089585
:10037A00CF93C82F40E061E080E00E944B018130BA
:10038A0009F04BC040E062E080E00E944B018130FE
:10039A0009F043C04C2F441F4427441F67E00E94C2
:1003AA004B018130D1F5C6FB442740F966E00E9433
:1003BA004B01813091F5C5FB442740F965E00E9465
:1003CA004B01813051F5C4FB442740F964E00E9497
:1003DA004B01813011F5C3FB442740F963E00E94C9
:1003EA004B018130D1F4C2FB442740F962E00E94FC
:1003FA004B01813091F4C1FB442740F961E00E942E
:10040A004B01813051F44C2F417060E00E944B0146
:0E041A00813019F40E94ED0281E0CF91089527
:100428001F920F920FB60F9211242F933F934F9361
:100438005F936F937F938F939F93AF93BF93EF9344
:10044800FF93809161008F5F809361008331F1F4A5
:1004580080916000811108C00E94FE020E94490339
:1004680081E08093600010C0813031F40E940E0357
:1004780082E08093600008C0823031F40E941E033D
:100488000E9454031092600010926100FF91EF9156
:10049800BF91AF919F918F917F916F915F914F9194
:0E04A8003F912F910F900FBE0F901F9018954F
:1004B60078940E943C030E9457000E941E030E94EB
:1004C600540365E080E00E9499020E946A0341E0BD
:1004D60067E080E00E94D90041E066E080E00E948B
:1004E600D90041E065E080E00E94D90041E064E087
:1004F60080E00E94D90041E063E080E00E94D900DC
:100506008AE00E94DB028AE00E94C30280E001C00A
:1005160080E08F5F2FE33DE093E021503040904034
:0C052600E1F700C000008530A1F7F2CF23
:10053200813069F028F0823089F08330B1F01BC03D
:1005420083B78F7B83BF83B7877F83BF14C083B793
:10055200806483BF83B7877F83BF0DC083B78F7BE0
:1005620083BF83B7886083BF06C083B7806483BFBD
:1005720083B7886083BF83B7887F83BF83B7682BC5
:0405820063BF0895B6
:100586008A3039F485B7816085BF85B7826085BFBB
:100596000895843139F485B7846085BF85B788604E
:1005A60085BF08958E3119F484B7806484BF089599
:1005B600843141F08E3151F08A3059F48BB7806422
:1005C6008BBF08958BB780688BBF08958BB7806209
:0405D6008BBF08953A
:1005DA0041E062E080E00E944B0183EC99E00197E0
:1005EA00F1F700C0000040E062E080E00E944B01A9
:0205FA00089562
:1005FC0041E065E080E00E944B0140E066E080E075
:10060C000E944B0140E067E080E00E944B0108959E
:10061C0040E065E080E00E944B0141E066E080E054
:10062C000E944B0140E067E080E00E944B0108957E
:10063C0040E065E080E00E944B0140E066E080E035
:10064C000E944B0141E067E080E00E944B0108955D
:10065C00CF93C82F40E060E080E00E944B018130D6
:0C066C0019F48C2F0E94BD01CF9108955D
:100678009FEF9ABB83E587BB94BB81BB85E68BBBA9
:0A06880088BB15BA82BB81E008951B
:1006920041E063E080E00E944B0140E064E080E0E2
:0606A2000E944B010895C7
:1006A80040E063E080E00E944B0141E064E080E0CC
:0606B8000E944B010895B1
:1006BE00EC010E9473030E947203CE010E94740328
:0606CE00CE010E94700342
:0806D40089B7816089BF089518
:0406DC000C9400007A
:0406E0000E9455001F
:0206E400089577
:0206E600089575
:0206E800089573
:00000001FF
