:100000000C942A000C943F000C943F000C943F0089
:100010000C943F000C943F000C943F000C943F0064
:100020000C943F000C943F000C943F000C943F0054
:100030000C943F000C943F000C943F000C943F0044
:100040000C943F000C943F000C943F000C943F0034
:100050000C943F0011241FBECFE5D8E0DEBFCDBF1A
:1000600010E0A0E6B0E0E6E5FFE102C005900D92E9
:10007000A237B107D9F70E941D0A0C94A90F0C945E
:100080000000EF92FF920F931F937B018C0120E001
:1000900030E040E05FE40E94410388238CF0C80117
:1000A000B70120E030E040E05FE40E94B9010E9427
:1000B000A1039B01AC01205030404040504806C095
:1000C000C801B7010E94A1039B01AC01B901CA019B
:1000D0001F910F91FF90EF900895A0E0B0E0E3E74B
:1000E000F0E00C94720FDC012B01FA019C9192302C
:1000F00008F439C1EB018881823008F433C19430AF
:1001000069F4843009F02FC111969C91119789816F
:10011000981709F428C1A0E6B0E025C1843009F49D
:1001200021C18230A9F4923009F01DC19A01AD01BC
:1001300088E0EA010990AE01E90109929E0181502F
:10014000C1F7E201898111969C918923818308C1BD
:10015000923009F407C112962D903C901397EB0151
:100160008A819B811496AD90BD90CD90DC901797BD
:10017000EC80FD800E811F819101281B390BB90194
:1001800037FF04C066277727621B730B6032710547
:100190000CF061C0121613066CF537014801062EEB
:1001A00004C096948794779467940A94D2F721E0D8
:1001B00030E040E050E004C0220F331F441F551FC1
:1001C0006A95D2F721503040404050402E213F21C7
:1001D00040235123211531054105510521F021E02E
:1001E00030E040E050E079018A01E628F72808294C
:1001F00019293CC0232BD1F1260E371E35014601AB
:10020000062E04C096948794779467940A94D2F744
:1002100021E030E040E050E004C0220F331F441FD3
:10022000551F6A95D2F721503040404050402A2156
:100230003B214C215D21211531054105510521F05E
:1002400021E030E040E050E059016A01A628B728DB
:10025000C828D9280BC0821593052CF01C01AA24AC
:10026000BB24650103C0EE24FF24870111969C91F5
:10027000D20111968C91981709F445C0992339F051
:10028000A80197012A193B094C095D0906C0A6017E
:1002900095012E193F09400B510B57FD08C01182E3
:1002A0003382228224833583468357831DC081E0B5
:1002B00081833382228288279927DC01821B930B5A
:1002C000A40BB50B84839583A683B7830DC0220F3F
:1002D000331F441F551F24833583468357838281F0
:1002E000938101979383828324813581468157814D
:1002F000DA01C9010197A109B1098F5F9F4FAF4F83
:10030000BF4328F30BC0918333822282EA0CFB1C8B
:100310000C1D1D1DE482F5820683178383E0808314
:10032000248135814681578157FF1AC0C901AA2708
:1003300097FDA095BA2F81709070A070B0705695FF
:10034000479537952795822B932BA42BB52B848328
:100350009583A683B7838281938101969383828359
:10036000DF0101C0D201CD01CDB7DEB7E2E10C94CF
:100370008E0FA0E2B0E0EFEBF1E00C947E0F69830A
:100380007A838B839C832D833E834F835887E9E058
:10039000EE2EF12CEC0EFD1ECE010196B7010E944F
:1003A000CA048E010F5E1F4FCE010596B8010E9450
:1003B000CA048A8991E089278A8BC701B801AE01F6
:1003C000475E5F4F0E946D000E94F503A096E6E035
:1003D0000C949A0FA0E2B0E0E0EFF1E00C947E0FF5
:1003E00069837A838B839C832D833E834F835887D5
:1003F000F9E0EF2EF12CEC0EFD1ECE010196B701B7
:100400000E94CA048E010F5E1F4FCE010596B801EF
:100410000E94CA04C701B801AE01475E5F4F0E9447
:100420006D000E94F503A096E6E00C949A0FA0E2FE
:10043000B0E0EDE1F2E00C94720F69837A838B8374
:100440009C832D833E834F835887CE010196BE0146
:10045000675F7F4F0E94CA04CE010596BE016F5EA2
:100460007F4F0E94CA049985923088F08989823032
:10047000C8F0943019F4823051F404C0843029F467
:10048000923081F480E690E0C6C0923049F420E0DA
:100490009A858A89981321E02A87CE010996BBC0E4
:1004A000823049F420E09A858A89981321E02A8BCA
:1004B000CE014196B0C02D843E844F8458886D880B
:1004C0007E888F88988CEE24FF248701AA24BB2481
:1004D000650140E050E060E070E0E0E0F0E0C10184
:1004E00081709070892BE9F0E60CF71C081D191D2E
:1004F0009A01AB012A0D3B1D4C1D5D1D80E090E073
:10050000A0E0B0E0E614F7040805190520F481E046
:1005100090E0A0E0B0E0BA01A901480F591F6A1F9E
:100520007B1FAA0CBB1CCC1CDD1C97FE08C081E005
:1005300090E0A0E0B0E0A82AB92ACA2ADB2A3196C6
:10054000E032F10549F0660C771C881C991C569422
:10055000479437942794C3CFFA85EA892B893C893D
:100560008B859C85280F391F2E5F3F4F17C0CA010E
:1005700081709070892B61F016950795F794E79438
:1005800080E090E0A0E0B0E8E82AF92A0A2B1B2BD3
:1005900076956795579547952F5F3F4F77FDE7CF46
:1005A0000CC0440F551F661F771F17FD4160EE0CEE
:1005B000FF1C001F111F21503040403090E05907B0
:1005C00090E0690790E4790760F32B8F3C8FDB01A3
:1005D000CA018F779070A070B07080349105A1052A
:1005E000B10561F447FD0AC0E114F10401051105EC
:1005F00029F0405C5F4F6F4F7F4F40781A8EFE1797
:1006000011F081E08A8F4D8F5E8F6F8F78A383E02A
:10061000898FCE0149960E94F503A096E2E10C94E1
:100620008E0FA8E1B0E0E7E1F3E00C947E0F698360
:100630007A838B839C832D833E834F83588789E005
:10064000E82EF12CEC0EFD1ECE010196B7010E94A2
:10065000CA048E010F5E1F4FCE010596B8010E949D
:10066000CA048985823040F08989823028F0C70128
:10067000B8010E94420501C08FEF6896E6E00C9435
:100680009A0FA8E1B0E0E7E4F3E00C947E0F6983F1
:100690007A838B839C832D833E834F83588789E0A5
:1006A000E82EF12CEC0EFD1ECE010196B7010E9442
:1006B000CA048E010F5E1F4FCE010596B8010E943D
:1006C000CA048985823040F08989823028F0C701C8
:1006D000B8010E94420501C08FEF6896E6E00C94D5
:1006E0009A0FA8E1B0E0E7E7F3E00C947E0F69838E
:1006F0007A838B839C832D833E834F83588789E045
:10070000E82EF12CEC0EFD1ECE010196B7010E94E1
:10071000CA048E010F5E1F4FCE010596B8010E94DC
:10072000CA048985823040F08989823028F0C70167
:10073000B8010E94420501C081E06896E6E00C9491
:100740009A0FACE0B0E0E7EAF3E00C94820F698323
:100750007A838B839C83CE010196BE016B5F7F4FB2
:100760000E94CA048D81823061F1823050F1843060
:1007700021F48E81882351F12EC02F81388537FDD9
:1007800020C06E812F3131051CF06623F9F023C0A3
:100790008EE190E0821B930B29853A854B855C8521
:1007A00004C056954795379527958A95D2F76623C5
:1007B000B1F050954095309521953F4F4F4F5F4F89
:1007C0000EC020E030E040E050E009C02FEF3FEFE6
:1007D0004FEF5FE704C020E030E040E050E8B901AF
:1007E000CA012C96E2E00C949E0FDF92EF92FF92EA
:1007F0000F931F93FC01E480F58006811781D1805F
:100800008081823048F480E090E0A0E1B0E0E82A06
:10081000F92A0A2B1B2BA5C0843009F49FC0823013
:1008200021F4EE24FF24870105C0E114F104010541
:10083000110519F4E0E0F0E096C0628173819FEF4A
:10084000623879070CF05BC022E83FEF261B370BBC
:100850002A3131052CF020E030E040E050E02AC0A1
:10086000B801A701022E04C0769567955795479564
:100870000A94D2F781E090E0A0E0B0E004C0880FD5
:10088000991FAA1FBB1F2A95D2F70197A109B10989
:100890008E219F21A023B1230097A105B10521F04E
:1008A00081E090E0A0E0B0E09A01AB01282B392B69
:1008B0004A2B5B2BDA01C9018F779070A070B07062
:1008C00080349105A105B10539F427FF09C0205CEA
:1008D0003F4F4F4F5F4F04C0215C3F4F4F4F5F4F23
:1008E000E0E0F0E02030A0E03A07A0E04A07A0E412
:1008F0005A0710F0E1E0F0E079018A0127C0603882
:10090000710564F5FB01E158FF4FD801C7018F77EE
:100910009070A070B07080349105A105B10539F4D4
:10092000E7FE0DC080E490E0A0E0B0E004C08FE3FB
:1009300090E0A0E0B0E0E80EF91E0A1F1B1F17FFB1
:1009400005C016950795F794E794319687E01695BC
:100950000795F794E7948A95D1F705C0EE24FF2414
:100960008701EFEFF0E06E2F679566276795902F70
:100970009F77D794DD24D7948E2F8695492F462BC9
:10098000582F5D29B701CA011F910F91FF90EF9079
:10099000DF900895FC01DB01408151812281622FAB
:1009A0006F7770E0221F2227221F9381892F880FE3
:1009B000822B282F30E0991F9927991F11969C931D
:1009C000119721153105A9F54115510561057105ED
:1009D00011F482E037C082E89FEF13969C938E93C8
:1009E00012979A01AB0167E0220F331F441F551F76
:1009F0006A95D1F783E08C930DC0220F331F441FFB
:100A0000551F12968D919C911397019713969C9365
:100A10008E931297203080E0380780E0480780E40A
:100A2000580758F314962D933D934D935C93179765
:100A300008952F3F310579F4411551056105710580
:100A400019F484E08C93089564FF03C081E08C93D3
:100A500012C01C9210C02F57304013963C932E9317
:100A6000129783E08C9387E0440F551F661F771F12
:100A70008A95D1F7706414964D935D936D937C9332
:100A8000179708951F93DC01FB019C91923008F4A5
:100A900047C08081823008F443C0943051F41196ED
:100AA0001C91843099F58181682F70E0611B710978
:100AB0003FC0843021F0923031F48230B9F181812D
:100AC000882389F12DC011961C9111978230F1F085
:100AD00081811817D9F412962D913C911397828138
:100AE00093818217930794F028173907BCF0149666
:100AF0008D919D910D90BC91A02D248135814681D1
:100B00005781281739074A075B0718F4112341F06A
:100B10000AC082179307A407B50740F4112319F000
:100B200061E070E005C06FEF7FEF02C060E070E051
:100B3000CB011F910895DF93CF930F92CDB7DEB70E
:100B40001982EAE3F0E08FEF8083E7E3F0E083E5EA
:100B50008083E4E3F0E08FEF8083E1E3F0E083E57E
:100B60008083EBE3F0E085E68083E8E3F0E085E670
:100B70008083E5E3F0E01082E2E3F0E085E6808345
:100B800081E0898389810F90CF91DF910895DF9370
:100B9000CF9300D000D00F92CDB7DEB78A836B839E
:100BA00019828A818430A8F58A81282F30E03D831C
:100BB0002C838C819D8181309105D1F02C813D81E8
:100BC000223031052CF48C819D81009761F01EC08C
:100BD0002C813D812230310581F08C819D818330D3
:100BE000910581F013C0EAE3F0E08B8180830EC0B1
:100BF000E7E3F0E08B81808309C0E4E3F0E08B81E0
:100C0000808304C0E1E3F0E08B81808381E089830D
:100C100002C082E0898389810F900F900F900F901E
:100C20000F90CF91DF910895DF93CF9300D000D044
:100C30000F92CDB7DEB78A836B8319828A818430A5
:100C4000A8F58A81282F30E03D832C838C819D81FB
:100C500081309105D1F02C813D81223031052CF479
:100C60008C819D81009761F01EC02C813D812230D6
:100C7000310581F08C819D818330910581F013C015
:100C8000EBE3F0E08B8180830EC0E8E3F0E08B8142
:100C9000808309C0E5E3F0E08B81808304C0E2E358
:100CA000F0E08B81808381E0898302C082E08983C8
:100CB00089810F900F900F900F900F90CF91DF913F
:100CC0000895DF93CF9300D000D0CDB7DEB78A83ED
:100CD00019828A81843008F041C08A81282F30E04F
:100CE0003C832B838B819C8181309105E9F02B81A2
:100CF0003C81223031052CF48B819C81009761F07E
:100D00002AC02B813C8122303105B1F08B819C813E
:100D100083309105C9F01FC0ABE3B0E0EBE3F0E036
:100D2000808180958C9317C0A8E3B0E0E8E3F0E001
:100D3000808180958C930FC0A5E3B0E0E5E3F0E0FF
:100D4000808180958C9307C0A2E3B0E0E2E3F0E0FD
:100D5000808180958C9381E0898302C082E08983C1
:100D600089810F900F900F900F90CF91DF91089590
:100D7000DF93CF9300D000D000D0CDB7DEB78A8309
:100D80007C836B8319828B819C81009709F443C01B
:100D90008A818430E8F58A81282F30E03E832D83D4
:100DA0008D819E8181309105E1F02D813E8122303F
:100DB00031052CF48D819E81009761F026C02D8134
:100DC0003E8122303105A1F08D819E8183309105D5
:100DD000B1F01BC0E9E3F0E08081EB81FC8180830E
:100DE00014C0E6E3F0E08081EB81FC8180830DC0DC
:100DF000E3E3F0E08081EB81FC81808306C0E0E3E7
:100E0000F0E08081EB81FC81808381E0898305C0F3
:100E100082E0898302C083E08983898126960FB6A8
:100E2000F894DEBF0FBECDBFCF91DF910895DF9361
:100E3000CF93CDB7DEB727970FB6F894DEBF0FBEBE
:100E4000CDBF8A836B835D834C8319828C819D81A6
:100E5000009709F47EC08A81843008F077C08B81C6
:100E6000883008F073C08A81282F30E03F832E83BA
:100E70004E815F814130510559F18E819F818230D1
:100E8000910534F42E813F812115310569F05BC055
:100E90004E815F814230510579F18E819F8183308F
:100EA000910509F43DC04FC0E9E3F0E08081282FAF
:100EB00030E08B81882F90E0A90102C055954795BD
:100EC0008A95E2F7CA018170EC81FD8180833BC085
:100ED000E6E3F0E08081282F30E08B81882F90E0DE
:100EE000A90102C0559547958A95E2F7CA0181701C
:100EF000EC81FD81808327C0E3E3F0E08081282F2F
:100F000030E08B81882F90E0A90102C0559547956C
:100F10008A95E2F7CA018170EC81FD81808313C05C
:100F2000E0E3F0E08081282F30E08B81882F90E093
:100F3000A90102C0559547958A95E2F7CA018170CB
:100F4000EC81FD81808381E0898305C082E0898313
:100F500002C083E08983898127960FB6F894DEBFAB
:100F60000FBECDBFCF91DF910895DF93CF9300D017
:100F700000D00F92CDB7DEB78A836B8319828A8146
:100F8000843008F077C08B81883008F073C081E02E
:100F9000898381E089838A81282F30E03D832C83F7
:100FA0008C819D818130910549F12C813D812230D8
:100FB00031052CF48C819D81009761F05DC02C81FE
:100FC0003D812230310571F18C819D818330910505
:100FD000E9F152C0ABE3B0E0EBE3F0E08081482FF1
:100FE0008B81282F30E081E090E0022E02C0880F34
:100FF000991F0A94E2F784278C933EC0A8E3B0E0DF
:10100000E8E3F0E08081482F8B81282F30E081E0F9
:1010100090E0022E02C0880F991F0A94E2F78427FD
:101020008C932AC0A5E3B0E0E5E3F0E08081482F8F
:101030008B81282F30E081E090E0022E02C0880FE3
:10104000991F0A94E2F784278C9316C0A2E3B0E0BC
:10105000E2E3F0E08081482F8B81282F30E081E0AF
:1010600090E0022E02C0880F991F0A94E2F78427AD
:101070008C9302C082E0898389810F900F900F903A
:101080000F900F90CF91DF910895DF93CF9300D011
:1010900000D000D0CDB7DEB78A836B834C83198232
:1010A0008A81843008F0D1C08B81883008F0CDC0AF
:1010B0008C81823008F0C9C08A81282F30E03E83BD
:1010C0002D836D817E816130710509F441C08D8170
:1010D0009E818230910534F42D813E8121153105A8
:1010E00071F0B0C06D817E816230710509F459C024
:1010F0008D819E818330910509F47CC0A3C0AAE351
:10110000B0E0EAE3F0E08081482F8B81282F30E0C7
:1011100081E090E002C0880F991F2A95E2F7809540
:1011200084238C93AAE3B0E0EAE3F0E08081482FC7
:101130008C81282F30E08B81882F90E0B90102C08C
:10114000660F771F8A95E2F7CB01842B8C937AC0C8
:10115000A7E3B0E0E7E3F0E08081482F8B81282F00
:1011600030E081E090E002C0880F991F2A95E2F7F5
:10117000809584238C93A7E3B0E0E7E3F0E08081DF
:10118000482F8C81282F30E08B81882F90E0B90187
:1011900002C0660F771F8A95E2F7CB01842B8C93F0
:1011A00051C0A4E3B0E0E4E3F0E08081482F8B81FC
:1011B000282F30E081E090E002C0880F991F2A9527
:1011C000E2F7809584238C93A4E3B0E0E4E3F0E0BD
:1011D0008081482F8C81282F30E08B81882F90E0F0
:1011E000B90102C0660F771F8A95E2F7CB01842B05
:1011F0008C9328C0A1E3B0E0E1E3F0E08081482FC8
:101200008B81282F30E081E090E002C0880F991F89
:101210002A95E2F7809584238C93A1E3B0E0E1E383
:10122000F0E08081482F8C81282F30E08B81882F3F
:1012300090E0B90102C0660F771F8A95E2F7CB01F3
:10124000842B8C9381E0898302C082E08983898129
:1012500026960FB6F894DEBF0FBECDBFCF91DF91BB
:101260000895DF93CF9300D000D000D0CDB7DEB784
:101270008A836B834C8319828A81843008F0D1C0C1
:101280008B81883008F0CDC08C81823008F0C9C0D5
:101290008A81282F30E03E832D836D817E816130ED
:1012A000710509F441C08D819E818230910534F42D
:1012B0002D813E812115310571F0B0C06D817E8197
:1012C0006230710509F459C08D819E81833091058A
:1012D00009F47CC0A3C0ABE3B0E0EBE3F0E08081B5
:1012E000482F8B81282F30E081E090E002C0880FEA
:1012F000991F2A95E2F7809584238C93ABE3B0E0A5
:10130000EBE3F0E08081482F8C81282F30E08B8147
:10131000882F90E0B90102C0660F771F8A95E2F727
:10132000CB01842B8C937AC0A8E3B0E0E8E3F0E033
:101330008081482F8B81282F30E081E090E002C02F
:10134000880F991F2A95E2F7809584238C93A8E350
:10135000B0E0E8E3F0E08081482F8C81282F30E076
:101360008B81882F90E0B90102C0660F771F8A95A4
:10137000E2F7CB01842B8C9351C0A5E3B0E0E5E309
:10138000F0E08081482F8B81282F30E081E090E0D1
:1013900002C0880F991F2A95E2F7809584238C93C9
:1013A000A5E3B0E0E5E3F0E08081482F8C81282FB1
:1013B00030E08B81882F90E0B90102C0660F771F63
:1013C0008A95E2F7CB01842B8C9328C0A2E3B0E08E
:1013D000E2E3F0E08081482F8B81282F30E081E02C
:1013E00090E002C0880F991F2A95E2F78095842328
:1013F0008C93A2E3B0E0E2E3F0E08081482F8C819F
:10140000282F30E08B81882F90E0B90102C0660F51
:10141000771F8A95E2F7CB01842B8C9381E0898337
:1014200002C082E08983898126960FB6F894DEBFD8
:101430000FBECDBFCF91DF910895DF93CF93CDB78E
:10144000DEB76D970FB6F894DEBF0FBECDBF0E941A
:101450009B050E94250B0E94530C0E94250B813096
:10146000D1F71D8E1D8E78C08D8D0E94970C80E067
:1014700090E0AAEFB3E4898F9A8FAB8FBC8F698D10
:101480007A8D8B8D9C8D20E030E04AE753E40E94FA
:101490001702DC01CB018D8B9E8BAF8BB88F6D89D2
:1014A0007E898F89988D20E030E040E85FE30E94DC
:1014B000710388232CF481E090E09C8B8B8B3FC0E0
:1014C0006D897E898F89988D20E03FEF4FE757E443
:1014D0000E94110318164CF5698D7A8D8B8D9C8DA9
:1014E00020E030E040E251E40E941702DC01CB0131
:1014F000BC01CD010E944100DC01CB019C8B8B8B98
:101500000FC089E190E09A8B898B89899A8901972C
:10151000F1F79A8B898B8B899C8901979C8B8B8B9C
:101520008B899C89009769F714C06D897E898F89A2
:10153000988D0E944100DC01CB019C8B8B8B8B89A9
:101540009C89988B8F878F8598890197F1F7988B65
:101550008F878D8D8F5F8D8F8D8D8A3008F484CF2E
:101560000E94490E80E090E0AAEFB3E48B879C874D
:10157000AD87BE876B857C858D859E8520E030E0BC
:101580004AE753E40E941702DC01CB018F8398875E
:10159000A987BA876F81788589859A8520E030E0B0
:1015A00040E85FE30E94710388232CF481E090E01F
:1015B0009E838D833FC06F81788589859A8520E0E1
:1015C0003FEF4FE757E40E94110318164CF56B8567
:1015D0007C858D859E8520E030E040E251E40E94CC
:1015E0001702DC01CB01BC01CD010E944100DC01EE
:1015F000CB019E838D830FC089E190E09C838B8318
:101600008B819C810197F1F79C838B838D819E81D7
:1016100001979E838D838D819E81009769F71BCFF3
:101620006F81788589859A850E944100DC01CB0114
:101630009E838D838D819E819A83898389819A81FE
:101640000197F1F79A83898306CFDF93CF93CDB7C4
:10165000DEB728970FB6F894DEBF0FBECDBF1F824E
:101660001B821C821D821E8280E060E041E00E949D
:101670004508282F30E040E050E08B819C81AD810F
:10168000BE81822B932BA42BB52B8B839C83AD83A4
:10169000BE8380E061E041E00E944508882F90E031
:1016A000A0E0B0E0880F991FAA1FBB1F880F991FE9
:1016B000AA1FBB1F880F991FAA1FBB1F9C01AD014A
:1016C0008B819C81AD81BE81822B932BA42BB52B6A
:1016D0008B839C83AD83BE8380E062E041E00E9407
:1016E0004508882F90E0A0E0B0E0880F991FAA1F5E
:1016F000BB1F880F991FAA1FBB1F880F991FAA1F06
:10170000BB1F880F991FAA1FBB1F880F991FAA1FF5
:10171000BB1F880F991FAA1FBB1F9C01AD018B81A6
:101720009C81AD81BE81822B932BA42BB52B8B8307
:101730009C83AD83BE8380E063E041E00E94450866
:10174000882F90E0A0E0B0E09C01AD01012E19E0EF
:10175000220F331F441F551F1A95D1F7102D8B816F
:101760009C81AD81BE81822B932BA42BB52B8B83C7
:101770009C83AD83BE8380E064E041E00E94450825
:10178000882F90E0A0E0B0E09C01AD01012E1CE0AC
:10179000220F331F441F551F1A95D1F7102D8B812F
:1017A0009C81AD81BE81822B932BA42BB52B8B8387
:1017B0009C83AD83BE8380E065E041E00E944508E4
:1017C000882F90E0A0E0B0E09C01AD01012E1FE069
:1017D000220F331F441F551F1A95D1F7102D8B81EF
:1017E0009C81AD81BE81822B932BA42BB52B8B8347
:1017F0009C83AD83BE8380E066E041E00E944508A3
:10180000882F90E0A0E0B0E09C01AD01012E12E134
:10181000220F331F441F551F1A95D1F7102D8B81AE
:101820009C81AD81BE81822B932BA42BB52B8B8306
:101830009C83AD83BE831A821A821FC08A81282F9F
:1018400030E0C901880F991F280F391F8B819C81B7
:10185000AD81BE81022E04C0B695A7959795879558
:101860000A94D2F7877089838981813019F08F813A
:1018700088870FC08A818F5F8A838A818730F0F2E0
:1018800081E08F8381E060E041E00E9445088F8124
:101890008887888528960FB6F894DEBF0FBECDBF27
:1018A000CF91DF910895DF93CF930F92CDB7DEB73D
:1018B000198281E060E041E00E94310989838981D9
:1018C0000F90CF91DF910895DF93CF930F92CDB713
:1018D000DEB7198281E060E040E00E94310989832F
:1018E00089810F90CF91DF910895DF93CF930F926D
:1018F000CDB7DEB7198281E060E040E00E94310997
:10190000898389810F90CF91DF910895DF93CF93E1
:101910000F92CDB7DEB7198281E060E041E00E940E
:101920003109898389810F90CF91DF910895DF93E9
:10193000CF93CDB7DEB760970FB6F894DEBF0FBE7A
:10194000CDBF88871F821B821C821D821E828885D4
:101950008A3008F069C18885882F90E0FC01E85939
:10196000FF4F8081882F90E081709070188A0097D7
:1019700011F481E0888B80E060E048890E943109A1
:10198000282F30E040E050E08B819C81AD81BE810A
:10199000822B932BA42BB52B8B839C83AD83BE838F
:1019A0008885882F90E0FC01E859FF4F808186955B
:1019B000882F90E0817090701F86009711F481E06D
:1019C0008F8780E061E04F850E943109882F90E089
:1019D000A0E0B0E0880F991FAA1FBB1F880F991FB6
:1019E000AA1FBB1F880F991FAA1FBB1F9C01AD0117
:1019F0008B819C81AD81BE81822B932BA42BB52B37
:101A00008B839C83AD83BE838885882F90E0FC0107
:101A1000E859FF4F808186958695882F90E08170E8
:101A200090701E86009711F481E08E8780E062E05E
:101A30004E850E943109882F90E0A0E0B0E0880F29
:101A4000991FAA1FBB1F880F991FAA1FBB1F880FB2
:101A5000991FAA1FBB1F880F991FAA1FBB1F880FA2
:101A6000991FAA1FBB1F880F991FAA1FBB1F9C018C
:101A7000AD018B819C81AD81BE81822B932BA42BE8
:101A8000B52B8B839C83AD83BE838885882F90E0A4
:101A9000FC01E859FF4F8081869586958695882FB1
:101AA00090E0817090701D86009711F481E08D8721
:101AB00080E063E04D850E943109882F90E0A0E02E
:101AC000B0E09C01AD01012E19E0220F331F441F2D
:101AD000551F1A95D1F7102D8B819C81AD81BE8148
:101AE000822B932BA42BB52B8B839C83AD83BE833E
:101AF0008885882F90E0FC01E859FF4F808182950E
:101B00008F70882F90E0817090701C86009711F480
:101B100081E08C8780E064E04C850E943109882F49
:101B200090E0A0E0B0E09C01AD01012E1CE0220F8E
:101B3000331F441F551F1A95D1F7102D8B819C819F
:101B4000AD81BE81822B932BA42BB52B8B839C83E1
:101B5000AD83BE838885882F90E0FC01E859FF4F54
:101B60008081829586958770882F90E08170907033
:101B70001B86009711F481E08B8780E065E04B8540
:101B80000E943109882F90E0A0E0B0E09C01AD01F7
:101B9000012E1FE0220F331F441F551F1A95D1F746
:101BA000102D8B819C81AD81BE81822B932BA42B28
:101BB000B52B8B839C83AD83BE838885882F90E073
:101BC000FC01E859FF4F8081829586958695837048
:101BD000882F90E0817090701A86009711F481E050
:101BE0008A8780E066E04A850E943109882F90E06C
:101BF000A0E0B0E09C01AD01012E12E1220F331FE5
:101C0000441F551F1A95D1F7102D8B819C81AD81F2
:101C1000BE81822B932BA42BB52B8B839C83AD830E
:101C2000BE831A821A8224C082E08F838F818987C3
:101C300026C08A81282F30E0C901880F991F280FFC
:101C4000391F8B819C81AD81BE81022E04C0B69567
:101C5000A795979587950A94D2F78770898389818C
:101C6000813019F08F8189870AC08A818F5F8A83CA
:101C70008A818531F0F281E08F838F818987898520
:101C800060960FB6F894DEBF0FBECDBFCF91DF9147
:101C90000895DF93CF93CDB7DEB728970FB6F894AA
:101CA000DEBF0FBECDBF1F821B821C821D821E8223
:101CB00080E060E041E00E943109282F30E040E000
:101CC00050E08B819C81AD81BE81822B932BA42B14
:101CD000B52B8B839C83AD83BE8380E061E041E0C4
:101CE0000E943109882F90E0A0E0B0E0880F991F92
:101CF000AA1FBB1F880F991FAA1FBB1F880F991F00
:101D0000AA1FBB1F9C01AD018B819C81AD81BE814F
:101D1000822B932BA42BB52B8B839C83AD83BE830B
:101D200080E062E041E00E943109882F90E0A0E06D
:101D3000B0E0880F991FAA1FBB1F880F991FAA1F09
:101D4000BB1F880F991FAA1FBB1F880F991FAA1FAF
:101D5000BB1F880F991FAA1FBB1F880F991FAA1F9F
:101D6000BB1F9C01AD018B819C81AD81BE81822B0B
:101D7000932BA42BB52B8B839C83AD83BE8380E0F8
:101D800063E041E00E943109882F90E0A0E0B0E0DC
:101D90009C01AD01012E19E0220F331F441F551F76
:101DA0001A95D1F7102D8B819C81AD81BE81822B3C
:101DB000932BA42BB52B8B839C83AD83BE8380E0B8
:101DC00064E041E00E943109882F90E0A0E0B0E09B
:101DD0009C01AD01012E1CE0220F331F441F551F33
:101DE0001A95D1F7102D8B819C81AD81BE81822BFC
:101DF000932BA42BB52B8B839C83AD83BE8380E078
:101E000065E041E00E943109882F90E0A0E0B0E059
:101E10009C01AD01012E1FE0220F331F441F551FEF
:101E20001A95D1F7102D8B819C81AD81BE81822BBB
:101E3000932BA42BB52B8B839C83AD83BE8380E037
:101E400066E041E00E943109882F90E0A0E0B0E018
:101E50009C01AD01012E12E1220F331F441F551FBB
:101E60001A95D1F7102D8B819C81AD81BE81822B7B
:101E7000932BA42BB52B8B839C83AD83BE831A82BB
:101E80001A821FC08A81282F30E0C901880F991F4C
:101E9000280F391F8B819C81AD81BE81022E04C029
:101EA000B695A795979587950A94D2F787708983F9
:101EB0008981813019F08F8188870AC08A818F5F7C
:101EC0008A838A818531F0F281E08F838F818887D0
:101ED000888528960FB6F894DEBF0FBECDBFCF9190
:101EE000DF9108952F923F924F925F926F927F926F
:101EF0008F929F92AF92BF92CF92DF92EF92FF921A
:101F00000F931F93CF93DF93CDB7DEB7CA1BDB0BC5
:101F10000FB6F894DEBF0FBECDBF09942A8839886A
:101F200048885F846E847D848C849B84AA84B98471
:101F3000C884DF80EE80FD800C811B81AA81B9817D
:101F4000CE0FD11D0FB6F894DEBF0FBECDBFED0191
:061F50000895F894FFCF94
:101F560000000000000000003F065B4F666D7D0735
:021F66007F6F8B
:00000001FF
