:100000000C942A000C943F000C943F000C943F0089
:100010000C943F000C943F000C943F000C943F0064
:100020000C943F000C943F000C943F000C943F0054
:100030000C943F000C943F000C943F000C943F0044
:100040000C943F000C943F000C943F000C943F0034
:100050000C943F0011241FBECFE5D8E0DEBFCDBF1A
:1000600010E0A0E6B0E0EAE8F1E002C005900D92F1
:10007000AA36B107D9F70E9482000C94C3000C94F1
:1000800000009FEF9ABB83E587BB94BB81BB85E6ED
:100090008BBB88BB15BA82BB81E008958430A0F485
:1000A000813049F028F0823049F0833051F00EC0A1
:1000B0006ABB81E0089567BB81E0089564BB81E07D
:1000C000089561BB81E0089582E0089581E008957C
:1000D0008430A0F4813049F028F0823049F0833038
:1000E00051F00EC06BBB81E0089568BB81E00895BC
:1000F00065BB81E0089562BB81E0089582E00895C8
:1001000081E00895CF93DF93CDB7DEB72A970FB67E
:10011000F894DEBF0FBECDBF8AE0E0E6F0E0DE017E
:10012000119601900D928A95E1F70E94410000E03E
:1001300027C0E1E0F0E0EC0FFD1FE00FF11D608152
:1001400080E00E94680010E018C06FEF83E00E941A
:100150004E00E1E0F0E0EC0FFD1FE10FF11D6081CA
:1001600083E00E9468002FE986E891E021508040FA
:100170009040E1F700C000001F5F1A3030F30F5FBE
:0A0180000A30B8F2D4CFF894FFCF94
:0A018A003F065B4F666D7D077F6F37
:00000001FF
